:0400000007EF00F016
:0A00080058825DED08F0A0EF08F04B
:10100000003738392F3435362A3132332D23303DED
:051010002B2569000022
:101016005650D8A411EF08F013EF08F015EF08F0BA
:101026005CEF08F0C69A949A9496929A5650D96EA6
:10103600DA6ADFB021EF08F025EF08F0576A572A81
:1010460026EF08F0576AC6505718F00B5718C66EA9
:101056005650D96EDA6ADFA233EF08F035EF08F0A2
:1010660038EF08F0C68843EF08F05650D96EDA6AB2
:10107600DFB240EF08F042EF08F043EF08F0C69801
:101086005650D96EDA6ADFB44BEF08F04DEF08F030
:1010960050EF08F0C79C5BEF08F05650D96EDA6A3D
:1010A600DFA458EF08F05AEF08F05BEF08F0C78CA2
:1010B600C68A120006009DA863EF08F065EF08F0E7
:1010C6006EEF08F09EA86AEF08F06CEF08F06EEF7E
:1010D60008F0ECEC08F09DAA73EF08F075EF08F045
:1010E6007EEF08F09EAA7AEF08F07CEF08F07EEF1C
:1010F60008F0EEEC08F09DA683EF08F085EF08F007
:101106008EEF08F09EA68AEF08F08CEF08F08EEFBF
:1011160008F0E8EC08F0A0A693EF08F095EF08F0C9
:101126009EEF08F0A1A69AEF08F09CEF08F09EEF5C
:1011360008F0EAEC08F058921100980EF66E110EBF
:10114600F76E000EF86E00EE38F010EE1EF0090095
:10115600F5CFEEFFE550E150FAE100EE01F0370E73
:10116600EE6AE806FDE1589058920001BBEF08F0E0
:10117600370E566E0BEC08F0610EDBEC08F0620ED3
:10118600DBEC08F0630EDBEC08F0BFEF08F007EFCE
:1011960000F0800F810F820F830F840F890F8A0F53
:1011A6008B0F8C0F8D0F920F930F940F950F960F39
:1011B600566E56C0C9FF9EA6E3EF08F0E5EF08F0AD
:1011C600DEEF08F09E96C95012009E961200A19678
:0811D60012009D9812001200A6
:020000040020DA
:08000000FFFFFFFFFFFFFFFF00
:020000040030CA
:0E000000FF02091EFF8181FF0FC00FE00F40BD
:00000001FF
